{
  "address": "0x77E3887933Cd4a09D8874f99086362591170eA45",
  "abi": [
    {
      "inputs": [],
      "stateMutability": "nonpayable",
      "type": "constructor"
    },
    {
      "anonymous": false,
      "inputs": [
        {
          "indexed": true,
          "internalType": "address",
          "name": "owner",
          "type": "address"
        },
        {
          "indexed": true,
          "internalType": "address",
          "name": "approved",
          "type": "address"
        },
        {
          "indexed": true,
          "internalType": "uint256",
          "name": "tokenId",
          "type": "uint256"
        }
      ],
      "name": "Approval",
      "type": "event"
    },
    {
      "anonymous": false,
      "inputs": [
        {
          "indexed": true,
          "internalType": "address",
          "name": "owner",
          "type": "address"
        },
        {
          "indexed": true,
          "internalType": "address",
          "name": "operator",
          "type": "address"
        },
        {
          "indexed": false,
          "internalType": "bool",
          "name": "approved",
          "type": "bool"
        }
      ],
      "name": "ApprovalForAll",
      "type": "event"
    },
    {
      "anonymous": false,
      "inputs": [
        {
          "indexed": true,
          "internalType": "address",
          "name": "from",
          "type": "address"
        },
        {
          "indexed": true,
          "internalType": "address",
          "name": "to",
          "type": "address"
        },
        {
          "indexed": true,
          "internalType": "uint256",
          "name": "tokenId",
          "type": "uint256"
        }
      ],
      "name": "Transfer",
      "type": "event"
    },
    {
      "inputs": [
        {
          "internalType": "address",
          "name": "to",
          "type": "address"
        },
        {
          "internalType": "uint256",
          "name": "tokenId",
          "type": "uint256"
        }
      ],
      "name": "approve",
      "outputs": [],
      "stateMutability": "nonpayable",
      "type": "function"
    },
    {
      "inputs": [
        {
          "internalType": "address",
          "name": "owner",
          "type": "address"
        }
      ],
      "name": "balanceOf",
      "outputs": [
        {
          "internalType": "uint256",
          "name": "",
          "type": "uint256"
        }
      ],
      "stateMutability": "view",
      "type": "function"
    },
    {
      "inputs": [
        {
          "internalType": "uint256",
          "name": "tokenId",
          "type": "uint256"
        }
      ],
      "name": "getApproved",
      "outputs": [
        {
          "internalType": "address",
          "name": "",
          "type": "address"
        }
      ],
      "stateMutability": "view",
      "type": "function"
    },
    {
      "inputs": [
        {
          "internalType": "address",
          "name": "owner",
          "type": "address"
        },
        {
          "internalType": "address",
          "name": "operator",
          "type": "address"
        }
      ],
      "name": "isApprovedForAll",
      "outputs": [
        {
          "internalType": "bool",
          "name": "",
          "type": "bool"
        }
      ],
      "stateMutability": "view",
      "type": "function"
    },
    {
      "inputs": [
        {
          "internalType": "address",
          "name": "_to",
          "type": "address"
        },
        {
          "internalType": "uint256",
          "name": "_amount",
          "type": "uint256"
        }
      ],
      "name": "mint",
      "outputs": [],
      "stateMutability": "nonpayable",
      "type": "function"
    },
    {
      "inputs": [],
      "name": "name",
      "outputs": [
        {
          "internalType": "string",
          "name": "",
          "type": "string"
        }
      ],
      "stateMutability": "view",
      "type": "function"
    },
    {
      "inputs": [
        {
          "internalType": "uint256",
          "name": "tokenId",
          "type": "uint256"
        }
      ],
      "name": "ownerOf",
      "outputs": [
        {
          "internalType": "address",
          "name": "",
          "type": "address"
        }
      ],
      "stateMutability": "view",
      "type": "function"
    },
    {
      "inputs": [
        {
          "internalType": "address",
          "name": "from",
          "type": "address"
        },
        {
          "internalType": "address",
          "name": "to",
          "type": "address"
        },
        {
          "internalType": "uint256",
          "name": "tokenId",
          "type": "uint256"
        }
      ],
      "name": "safeTransferFrom",
      "outputs": [],
      "stateMutability": "nonpayable",
      "type": "function"
    },
    {
      "inputs": [
        {
          "internalType": "address",
          "name": "from",
          "type": "address"
        },
        {
          "internalType": "address",
          "name": "to",
          "type": "address"
        },
        {
          "internalType": "uint256",
          "name": "tokenId",
          "type": "uint256"
        },
        {
          "internalType": "bytes",
          "name": "data",
          "type": "bytes"
        }
      ],
      "name": "safeTransferFrom",
      "outputs": [],
      "stateMutability": "nonpayable",
      "type": "function"
    },
    {
      "inputs": [
        {
          "internalType": "address",
          "name": "operator",
          "type": "address"
        },
        {
          "internalType": "bool",
          "name": "approved",
          "type": "bool"
        }
      ],
      "name": "setApprovalForAll",
      "outputs": [],
      "stateMutability": "nonpayable",
      "type": "function"
    },
    {
      "inputs": [
        {
          "internalType": "bytes4",
          "name": "interfaceId",
          "type": "bytes4"
        }
      ],
      "name": "supportsInterface",
      "outputs": [
        {
          "internalType": "bool",
          "name": "",
          "type": "bool"
        }
      ],
      "stateMutability": "view",
      "type": "function"
    },
    {
      "inputs": [],
      "name": "symbol",
      "outputs": [
        {
          "internalType": "string",
          "name": "",
          "type": "string"
        }
      ],
      "stateMutability": "view",
      "type": "function"
    },
    {
      "inputs": [
        {
          "internalType": "uint256",
          "name": "index",
          "type": "uint256"
        }
      ],
      "name": "tokenByIndex",
      "outputs": [
        {
          "internalType": "uint256",
          "name": "",
          "type": "uint256"
        }
      ],
      "stateMutability": "view",
      "type": "function"
    },
    {
      "inputs": [
        {
          "internalType": "address",
          "name": "owner",
          "type": "address"
        },
        {
          "internalType": "uint256",
          "name": "index",
          "type": "uint256"
        }
      ],
      "name": "tokenOfOwnerByIndex",
      "outputs": [
        {
          "internalType": "uint256",
          "name": "",
          "type": "uint256"
        }
      ],
      "stateMutability": "view",
      "type": "function"
    },
    {
      "inputs": [
        {
          "internalType": "uint256",
          "name": "tokenId",
          "type": "uint256"
        }
      ],
      "name": "tokenURI",
      "outputs": [
        {
          "internalType": "string",
          "name": "",
          "type": "string"
        }
      ],
      "stateMutability": "view",
      "type": "function"
    },
    {
      "inputs": [],
      "name": "totalSupply",
      "outputs": [
        {
          "internalType": "uint256",
          "name": "",
          "type": "uint256"
        }
      ],
      "stateMutability": "view",
      "type": "function"
    },
    {
      "inputs": [
        {
          "internalType": "address",
          "name": "from",
          "type": "address"
        },
        {
          "internalType": "address",
          "name": "to",
          "type": "address"
        },
        {
          "internalType": "uint256",
          "name": "tokenId",
          "type": "uint256"
        }
      ],
      "name": "transferFrom",
      "outputs": [],
      "stateMutability": "nonpayable",
      "type": "function"
    }
  ],
  "transactionHash": "0x3ab0f6b76d6f45ff38d88518d0d1bdcae0a1f975cc34ff7dd74f995e4a5bb41a",
  "args": [],
  "numDeployments": 1,
  "solcInputHash": "a098e340236f7c1c5df677169e3e2c19",
  "bytecode": "0x60806040523480156200001157600080fd5b506040518060400160405280600b81526020017f46616b65204552433732310000000000000000000000000000000000000000008152506040518060400160405280600781526020017f4645524337323100000000000000000000000000000000000000000000000000815250816000908051906020019062000096929190620000b8565b508060019080519060200190620000af929190620000b8565b505050620001cd565b828054620000c69062000168565b90600052602060002090601f016020900481019282620000ea576000855562000136565b82601f106200010557805160ff191683800117855562000136565b8280016001018555821562000136579182015b828111156200013557825182559160200191906001019062000118565b5b50905062000145919062000149565b5090565b5b80821115620001645760008160009055506001016200014a565b5090565b600060028204905060018216806200018157607f821691505b602082108114156200019857620001976200019e565b5b50919050565b7f4e487b7100000000000000000000000000000000000000000000000000000000600052602260045260246000fd5b6130c780620001dd6000396000f3fe608060405234801561001057600080fd5b506004361061010b5760003560e01c806342842e0e116100a257806395d89b411161007157806395d89b41146102dc578063a22cb465146102fa578063b88d4fde14610316578063c87b56dd14610332578063e985e9c5146103625761010b565b806342842e0e146102305780634f6ccce71461024c5780636352211e1461027c57806370a08231146102ac5761010b565b806318160ddd116100de57806318160ddd146101aa57806323b872dd146101c85780632f745c59146101e457806340c10f19146102145761010b565b806301ffc9a71461011057806306fdde0314610140578063081812fc1461015e578063095ea7b31461018e575b600080fd5b61012a6004803603810190610125919061234a565b610392565b604051610137919061270a565b60405180910390f35b61014861040c565b6040516101559190612725565b60405180910390f35b6101786004803603810190610173919061239c565b61049e565b60405161018591906126a3565b60405180910390f35b6101a860048036038101906101a3919061230e565b6104e4565b005b6101b26105fc565b6040516101bf9190612907565b60405180910390f35b6101e260048036038101906101dd9190612208565b610609565b005b6101fe60048036038101906101f9919061230e565b610669565b60405161020b9190612907565b60405180910390f35b61022e6004803603810190610229919061230e565b61070e565b005b61024a60048036038101906102459190612208565b610751565b005b6102666004803603810190610261919061239c565b610771565b6040516102739190612907565b60405180910390f35b6102966004803603810190610291919061239c565b610808565b6040516102a391906126a3565b60405180910390f35b6102c660048036038101906102c191906121a3565b61088f565b6040516102d39190612907565b60405180910390f35b6102e4610947565b6040516102f19190612725565b60405180910390f35b610314600480360381019061030f91906122d2565b6109d9565b005b610330600480360381019061032b9190612257565b6109ef565b005b61034c6004803603810190610347919061239c565b610a51565b6040516103599190612725565b60405180910390f35b61037c600480360381019061037791906121cc565b610ab9565b604051610389919061270a565b60405180910390f35b60007f780e9d63000000000000000000000000000000000000000000000000000000007bffffffffffffffffffffffffffffffffffffffffffffffffffffffff1916827bffffffffffffffffffffffffffffffffffffffffffffffffffffffff19161480610405575061040482610b4d565b5b9050919050565b60606000805461041b90612afb565b80601f016020809104026020016040519081016040528092919081815260200182805461044790612afb565b80156104945780601f1061046957610100808354040283529160200191610494565b820191906000526020600020905b81548152906001019060200180831161047757829003601f168201915b5050505050905090565b60006104a982610c2f565b6004600083815260200190815260200160002060009054906101000a900473ffffffffffffffffffffffffffffffffffffffff169050919050565b60006104ef82610808565b90508073ffffffffffffffffffffffffffffffffffffffff168373ffffffffffffffffffffffffffffffffffffffff161415610560576040517f08c379a000000000000000000000000000000000000000000000000000000000815260040161055790612887565b60405180910390fd5b8073ffffffffffffffffffffffffffffffffffffffff1661057f610c7a565b73ffffffffffffffffffffffffffffffffffffffff1614806105ae57506105ad816105a8610c7a565b610ab9565b5b6105ed576040517f08c379a00000000000000000000000000000000000000000000000000000000081526004016105e4906128a7565b60405180910390fd5b6105f78383610c82565b505050565b6000600880549050905090565b61061a610614610c7a565b82610d3b565b610659576040517f08c379a000000000000000000000000000000000000000000000000000000000815260040161065090612747565b60405180910390fd5b610664838383610dd0565b505050565b60006106748361088f565b82106106b5576040517f08c379a00000000000000000000000000000000000000000000000000000000081526004016106ac90612767565b60405180910390fd5b600660008473ffffffffffffffffffffffffffffffffffffffff1673ffffffffffffffffffffffffffffffffffffffff168152602001908152602001600020600083815260200190815260200160002054905092915050565b60006107186105fc565b905060005b8281101561074b5761073a84828461073591906129bb565b6110ca565b8061074490612b5e565b905061071d565b50505050565b61076c838383604051806020016040528060008152506109ef565b505050565b600061077b6105fc565b82106107bc576040517f08c379a00000000000000000000000000000000000000000000000000000000081526004016107b3906128c7565b60405180910390fd5b600882815481106107f6577f4e487b7100000000000000000000000000000000000000000000000000000000600052603260045260246000fd5b90600052602060002001549050919050565b600080610814836112e8565b9050600073ffffffffffffffffffffffffffffffffffffffff168173ffffffffffffffffffffffffffffffffffffffff161415610886576040517f08c379a000000000000000000000000000000000000000000000000000000000815260040161087d90612867565b60405180910390fd5b80915050919050565b60008073ffffffffffffffffffffffffffffffffffffffff168273ffffffffffffffffffffffffffffffffffffffff161415610900576040517f08c379a00000000000000000000000000000000000000000000000000000000081526004016108f790612827565b60405180910390fd5b600360008373ffffffffffffffffffffffffffffffffffffffff1673ffffffffffffffffffffffffffffffffffffffff168152602001908152602001600020549050919050565b60606001805461095690612afb565b80601f016020809104026020016040519081016040528092919081815260200182805461098290612afb565b80156109cf5780601f106109a4576101008083540402835291602001916109cf565b820191906000526020600020905b8154815290600101906020018083116109b257829003601f168201915b5050505050905090565b6109eb6109e4610c7a565b8383611325565b5050565b610a006109fa610c7a565b83610d3b565b610a3f576040517f08c379a0000000000000000000000000000000000000000000000000000000008152600401610a3690612747565b60405180910390fd5b610a4b84848484611492565b50505050565b6060610a5c82610c2f565b6000610a666114ee565b90506000815111610a865760405180602001604052806000815250610ab1565b80610a908461150e565b604051602001610aa192919061267f565b6040516020818303038152906040525b915050919050565b6000600560008473ffffffffffffffffffffffffffffffffffffffff1673ffffffffffffffffffffffffffffffffffffffff16815260200190815260200160002060008373ffffffffffffffffffffffffffffffffffffffff1673ffffffffffffffffffffffffffffffffffffffff16815260200190815260200160002060009054906101000a900460ff16905092915050565b60007f80ac58cd000000000000000000000000000000000000000000000000000000007bffffffffffffffffffffffffffffffffffffffffffffffffffffffff1916827bffffffffffffffffffffffffffffffffffffffffffffffffffffffff19161480610c1857507f5b5e139f000000000000000000000000000000000000000000000000000000007bffffffffffffffffffffffffffffffffffffffffffffffffffffffff1916827bffffffffffffffffffffffffffffffffffffffffffffffffffffffff1916145b80610c285750610c2782611632565b5b9050919050565b610c388161169c565b610c77576040517f08c379a0000000000000000000000000000000000000000000000000000000008152600401610c6e90612867565b60405180910390fd5b50565b600033905090565b816004600083815260200190815260200160002060006101000a81548173ffffffffffffffffffffffffffffffffffffffff021916908373ffffffffffffffffffffffffffffffffffffffff160217905550808273ffffffffffffffffffffffffffffffffffffffff16610cf583610808565b73ffffffffffffffffffffffffffffffffffffffff167f8c5be1e5ebec7d5bd14f71427d1e84f3dd0314c0f7b2291e5b200ac8c7c3b92560405160405180910390a45050565b600080610d4783610808565b90508073ffffffffffffffffffffffffffffffffffffffff168473ffffffffffffffffffffffffffffffffffffffff161480610d895750610d888185610ab9565b5b80610dc757508373ffffffffffffffffffffffffffffffffffffffff16610daf8461049e565b73ffffffffffffffffffffffffffffffffffffffff16145b91505092915050565b8273ffffffffffffffffffffffffffffffffffffffff16610df082610808565b73ffffffffffffffffffffffffffffffffffffffff1614610e46576040517f08c379a0000000000000000000000000000000000000000000000000000000008152600401610e3d906127a7565b60405180910390fd5b600073ffffffffffffffffffffffffffffffffffffffff168273ffffffffffffffffffffffffffffffffffffffff161415610eb6576040517f08c379a0000000000000000000000000000000000000000000000000000000008152600401610ead906127e7565b60405180910390fd5b610ec383838360016116dd565b8273ffffffffffffffffffffffffffffffffffffffff16610ee382610808565b73ffffffffffffffffffffffffffffffffffffffff1614610f39576040517f08c379a0000000000000000000000000000000000000000000000000000000008152600401610f30906127a7565b60405180910390fd5b6004600082815260200190815260200160002060006101000a81549073ffffffffffffffffffffffffffffffffffffffff02191690556001600360008573ffffffffffffffffffffffffffffffffffffffff1673ffffffffffffffffffffffffffffffffffffffff168152602001908152602001600020600082825403925050819055506001600360008473ffffffffffffffffffffffffffffffffffffffff1673ffffffffffffffffffffffffffffffffffffffff16815260200190815260200160002060008282540192505081905550816002600083815260200190815260200160002060006101000a81548173ffffffffffffffffffffffffffffffffffffffff021916908373ffffffffffffffffffffffffffffffffffffffff160217905550808273ffffffffffffffffffffffffffffffffffffffff168473ffffffffffffffffffffffffffffffffffffffff167fddf252ad1be2c89b69c2b068fc378daa952ba7f163c4a11628f55a4df523b3ef60405160405180910390a46110c5838383600161183d565b505050565b600073ffffffffffffffffffffffffffffffffffffffff168273ffffffffffffffffffffffffffffffffffffffff16141561113a576040517f08c379a000000000000000000000000000000000000000000000000000000000815260040161113190612847565b60405180910390fd5b6111438161169c565b15611183576040517f08c379a000000000000000000000000000000000000000000000000000000000815260040161117a906127c7565b60405180910390fd5b6111916000838360016116dd565b61119a8161169c565b156111da576040517f08c379a00000000000000000000000000000000000000000000000000000000081526004016111d1906127c7565b60405180910390fd5b6001600360008473ffffffffffffffffffffffffffffffffffffffff1673ffffffffffffffffffffffffffffffffffffffff16815260200190815260200160002060008282540192505081905550816002600083815260200190815260200160002060006101000a81548173ffffffffffffffffffffffffffffffffffffffff021916908373ffffffffffffffffffffffffffffffffffffffff160217905550808273ffffffffffffffffffffffffffffffffffffffff16600073ffffffffffffffffffffffffffffffffffffffff167fddf252ad1be2c89b69c2b068fc378daa952ba7f163c4a11628f55a4df523b3ef60405160405180910390a46112e460008383600161183d565b5050565b60006002600083815260200190815260200160002060009054906101000a900473ffffffffffffffffffffffffffffffffffffffff169050919050565b8173ffffffffffffffffffffffffffffffffffffffff168373ffffffffffffffffffffffffffffffffffffffff161415611394576040517f08c379a000000000000000000000000000000000000000000000000000000000815260040161138b90612807565b60405180910390fd5b80600560008573ffffffffffffffffffffffffffffffffffffffff1673ffffffffffffffffffffffffffffffffffffffff16815260200190815260200160002060008473ffffffffffffffffffffffffffffffffffffffff1673ffffffffffffffffffffffffffffffffffffffff16815260200190815260200160002060006101000a81548160ff0219169083151502179055508173ffffffffffffffffffffffffffffffffffffffff168373ffffffffffffffffffffffffffffffffffffffff167f17307eab39ab6107e8899845ad3d59bd9653f200f220920489ca2b5937696c3183604051611485919061270a565b60405180910390a3505050565b61149d848484610dd0565b6114a984848484611843565b6114e8576040517f08c379a00000000000000000000000000000000000000000000000000000000081526004016114df90612787565b60405180910390fd5b50505050565b606060405180606001604052806036815260200161305c60369139905090565b60606000600161151d846119da565b01905060008167ffffffffffffffff811115611562577f4e487b7100000000000000000000000000000000000000000000000000000000600052604160045260246000fd5b6040519080825280601f01601f1916602001820160405280156115945781602001600182028036833780820191505090505b509050600082602001820190505b600115611627578080600190039150507f3031323334353637383961626364656600000000000000000000000000000000600a86061a8153600a8581611611577f4e487b7100000000000000000000000000000000000000000000000000000000600052601260045260246000fd5b049450600085141561162257611627565b6115a2565b819350505050919050565b60007f01ffc9a7000000000000000000000000000000000000000000000000000000007bffffffffffffffffffffffffffffffffffffffffffffffffffffffff1916827bffffffffffffffffffffffffffffffffffffffffffffffffffffffff1916149050919050565b60008073ffffffffffffffffffffffffffffffffffffffff166116be836112e8565b73ffffffffffffffffffffffffffffffffffffffff1614159050919050565b6116e984848484611c11565b600181111561172d576040517f08c379a0000000000000000000000000000000000000000000000000000000008152600401611724906128e7565b60405180910390fd5b6000829050600073ffffffffffffffffffffffffffffffffffffffff168573ffffffffffffffffffffffffffffffffffffffff1614156117755761177081611d37565b6117b4565b8373ffffffffffffffffffffffffffffffffffffffff168573ffffffffffffffffffffffffffffffffffffffff16146117b3576117b28582611d80565b5b5b600073ffffffffffffffffffffffffffffffffffffffff168473ffffffffffffffffffffffffffffffffffffffff1614156117f7576117f281611eed565b611836565b8473ffffffffffffffffffffffffffffffffffffffff168473ffffffffffffffffffffffffffffffffffffffff1614611835576118348482612030565b5b5b5050505050565b50505050565b60006118648473ffffffffffffffffffffffffffffffffffffffff166120af565b156119cd578373ffffffffffffffffffffffffffffffffffffffff1663150b7a0261188d610c7a565b8786866040518563ffffffff1660e01b81526004016118af94939291906126be565b602060405180830381600087803b1580156118c957600080fd5b505af19250505080156118fa57506040513d601f19601f820116820180604052508101906118f79190612373565b60015b61197d573d806000811461192a576040519150601f19603f3d011682016040523d82523d6000602084013e61192f565b606091505b50600081511415611975576040517f08c379a000000000000000000000000000000000000000000000000000000000815260040161196c90612787565b60405180910390fd5b805181602001fd5b63150b7a0260e01b7bffffffffffffffffffffffffffffffffffffffffffffffffffffffff1916817bffffffffffffffffffffffffffffffffffffffffffffffffffffffff1916149150506119d2565b600190505b949350505050565b600080600090507a184f03e93ff9f4daa797ed6e38ed64bf6a1f0100000000000000008310611a5e577a184f03e93ff9f4daa797ed6e38ed64bf6a1f0100000000000000008381611a54577f4e487b7100000000000000000000000000000000000000000000000000000000600052601260045260246000fd5b0492506040810190505b6d04ee2d6d415b85acef81000000008310611ac1576d04ee2d6d415b85acef81000000008381611ab7577f4e487b7100000000000000000000000000000000000000000000000000000000600052601260045260246000fd5b0492506020810190505b662386f26fc100008310611b1657662386f26fc100008381611b0c577f4e487b7100000000000000000000000000000000000000000000000000000000600052601260045260246000fd5b0492506010810190505b6305f5e1008310611b65576305f5e1008381611b5b577f4e487b7100000000000000000000000000000000000000000000000000000000600052601260045260246000fd5b0492506008810190505b6127108310611bb0576127108381611ba6577f4e487b7100000000000000000000000000000000000000000000000000000000600052601260045260246000fd5b0492506004810190505b60648310611bf95760648381611bef577f4e487b7100000000000000000000000000000000000000000000000000000000600052601260045260246000fd5b0492506002810190505b600a8310611c08576001810190505b80915050919050565b6001811115611d3157600073ffffffffffffffffffffffffffffffffffffffff168473ffffffffffffffffffffffffffffffffffffffff1614611ca55780600360008673ffffffffffffffffffffffffffffffffffffffff1673ffffffffffffffffffffffffffffffffffffffff1681526020019081526020016000206000828254611c9d9190612a11565b925050819055505b600073ffffffffffffffffffffffffffffffffffffffff168373ffffffffffffffffffffffffffffffffffffffff1614611d305780600360008573ffffffffffffffffffffffffffffffffffffffff1673ffffffffffffffffffffffffffffffffffffffff1681526020019081526020016000206000828254611d2891906129bb565b925050819055505b5b50505050565b6008805490506009600083815260200190815260200160002081905550600881908060018154018082558091505060019003906000526020600020016000909190919091505550565b60006001611d8d8461088f565b611d979190612a11565b9050600060076000848152602001908152602001600020549050818114611e7c576000600660008673ffffffffffffffffffffffffffffffffffffffff1673ffffffffffffffffffffffffffffffffffffffff168152602001908152602001600020600084815260200190815260200160002054905080600660008773ffffffffffffffffffffffffffffffffffffffff1673ffffffffffffffffffffffffffffffffffffffff168152602001908152602001600020600084815260200190815260200160002081905550816007600083815260200190815260200160002081905550505b6007600084815260200190815260200160002060009055600660008573ffffffffffffffffffffffffffffffffffffffff1673ffffffffffffffffffffffffffffffffffffffff16815260200190815260200160002060008381526020019081526020016000206000905550505050565b60006001600880549050611f019190612a11565b9050600060096000848152602001908152602001600020549050600060088381548110611f57577f4e487b7100000000000000000000000000000000000000000000000000000000600052603260045260246000fd5b906000526020600020015490508060088381548110611f9f577f4e487b7100000000000000000000000000000000000000000000000000000000600052603260045260246000fd5b906000526020600020018190555081600960008381526020019081526020016000208190555060096000858152602001908152602001600020600090556008805480612014577f4e487b7100000000000000000000000000000000000000000000000000000000600052603160045260246000fd5b6001900381819060005260206000200160009055905550505050565b600061203b8361088f565b905081600660008573ffffffffffffffffffffffffffffffffffffffff1673ffffffffffffffffffffffffffffffffffffffff168152602001908152602001600020600083815260200190815260200160002081905550806007600084815260200190815260200160002081905550505050565b6000808273ffffffffffffffffffffffffffffffffffffffff163b119050919050565b60006120e56120e084612947565b612922565b9050828152602081018484840111156120fd57600080fd5b612108848285612ab9565b509392505050565b60008135905061211f81612fff565b92915050565b60008135905061213481613016565b92915050565b6000813590506121498161302d565b92915050565b60008151905061215e8161302d565b92915050565b600082601f83011261217557600080fd5b81356121858482602086016120d2565b91505092915050565b60008135905061219d81613044565b92915050565b6000602082840312156121b557600080fd5b60006121c384828501612110565b91505092915050565b600080604083850312156121df57600080fd5b60006121ed85828601612110565b92505060206121fe85828601612110565b9150509250929050565b60008060006060848603121561221d57600080fd5b600061222b86828701612110565b935050602061223c86828701612110565b925050604061224d8682870161218e565b9150509250925092565b6000806000806080858703121561226d57600080fd5b600061227b87828801612110565b945050602061228c87828801612110565b935050604061229d8782880161218e565b925050606085013567ffffffffffffffff8111156122ba57600080fd5b6122c687828801612164565b91505092959194509250565b600080604083850312156122e557600080fd5b60006122f385828601612110565b925050602061230485828601612125565b9150509250929050565b6000806040838503121561232157600080fd5b600061232f85828601612110565b92505060206123408582860161218e565b9150509250929050565b60006020828403121561235c57600080fd5b600061236a8482850161213a565b91505092915050565b60006020828403121561238557600080fd5b60006123938482850161214f565b91505092915050565b6000602082840312156123ae57600080fd5b60006123bc8482850161218e565b91505092915050565b6123ce81612a45565b82525050565b6123dd81612a57565b82525050565b60006123ee82612978565b6123f8818561298e565b9350612408818560208601612ac8565b61241181612c34565b840191505092915050565b600061242782612983565b612431818561299f565b9350612441818560208601612ac8565b61244a81612c34565b840191505092915050565b600061246082612983565b61246a81856129b0565b935061247a818560208601612ac8565b80840191505092915050565b6000612493602d8361299f565b915061249e82612c45565b604082019050919050565b60006124b6602b8361299f565b91506124c182612c94565b604082019050919050565b60006124d960328361299f565b91506124e482612ce3565b604082019050919050565b60006124fc60258361299f565b915061250782612d32565b604082019050919050565b600061251f601c8361299f565b915061252a82612d81565b602082019050919050565b600061254260248361299f565b915061254d82612daa565b604082019050919050565b600061256560198361299f565b915061257082612df9565b602082019050919050565b600061258860298361299f565b915061259382612e22565b604082019050919050565b60006125ab60208361299f565b91506125b682612e71565b602082019050919050565b60006125ce60188361299f565b91506125d982612e9a565b602082019050919050565b60006125f160218361299f565b91506125fc82612ec3565b604082019050919050565b6000612614603d8361299f565b915061261f82612f12565b604082019050919050565b6000612637602c8361299f565b915061264282612f61565b604082019050919050565b600061265a60358361299f565b915061266582612fb0565b604082019050919050565b61267981612aaf565b82525050565b600061268b8285612455565b91506126978284612455565b91508190509392505050565b60006020820190506126b860008301846123c5565b92915050565b60006080820190506126d360008301876123c5565b6126e060208301866123c5565b6126ed6040830185612670565b81810360608301526126ff81846123e3565b905095945050505050565b600060208201905061271f60008301846123d4565b92915050565b6000602082019050818103600083015261273f818461241c565b905092915050565b6000602082019050818103600083015261276081612486565b9050919050565b60006020820190508181036000830152612780816124a9565b9050919050565b600060208201905081810360008301526127a0816124cc565b9050919050565b600060208201905081810360008301526127c0816124ef565b9050919050565b600060208201905081810360008301526127e081612512565b9050919050565b6000602082019050818103600083015261280081612535565b9050919050565b6000602082019050818103600083015261282081612558565b9050919050565b600060208201905081810360008301526128408161257b565b9050919050565b600060208201905081810360008301526128608161259e565b9050919050565b60006020820190508181036000830152612880816125c1565b9050919050565b600060208201905081810360008301526128a0816125e4565b9050919050565b600060208201905081810360008301526128c081612607565b9050919050565b600060208201905081810360008301526128e08161262a565b9050919050565b600060208201905081810360008301526129008161264d565b9050919050565b600060208201905061291c6000830184612670565b92915050565b600061292c61293d565b90506129388282612b2d565b919050565b6000604051905090565b600067ffffffffffffffff82111561296257612961612c05565b5b61296b82612c34565b9050602081019050919050565b600081519050919050565b600081519050919050565b600082825260208201905092915050565b600082825260208201905092915050565b600081905092915050565b60006129c682612aaf565b91506129d183612aaf565b9250827fffffffffffffffffffffffffffffffffffffffffffffffffffffffffffffffff03821115612a0657612a05612ba7565b5b828201905092915050565b6000612a1c82612aaf565b9150612a2783612aaf565b925082821015612a3a57612a39612ba7565b5b828203905092915050565b6000612a5082612a8f565b9050919050565b60008115159050919050565b60007fffffffff0000000000000000000000000000000000000000000000000000000082169050919050565b600073ffffffffffffffffffffffffffffffffffffffff82169050919050565b6000819050919050565b82818337600083830152505050565b60005b83811015612ae6578082015181840152602081019050612acb565b83811115612af5576000848401525b50505050565b60006002820490506001821680612b1357607f821691505b60208210811415612b2757612b26612bd6565b5b50919050565b612b3682612c34565b810181811067ffffffffffffffff82111715612b5557612b54612c05565b5b80604052505050565b6000612b6982612aaf565b91507fffffffffffffffffffffffffffffffffffffffffffffffffffffffffffffffff821415612b9c57612b9b612ba7565b5b600182019050919050565b7f4e487b7100000000000000000000000000000000000000000000000000000000600052601160045260246000fd5b7f4e487b7100000000000000000000000000000000000000000000000000000000600052602260045260246000fd5b7f4e487b7100000000000000000000000000000000000000000000000000000000600052604160045260246000fd5b6000601f19601f8301169050919050565b7f4552433732313a2063616c6c6572206973206e6f7420746f6b656e206f776e6560008201527f72206f7220617070726f76656400000000000000000000000000000000000000602082015250565b7f455243373231456e756d657261626c653a206f776e657220696e646578206f7560008201527f74206f6620626f756e6473000000000000000000000000000000000000000000602082015250565b7f4552433732313a207472616e7366657220746f206e6f6e20455243373231526560008201527f63656976657220696d706c656d656e7465720000000000000000000000000000602082015250565b7f4552433732313a207472616e736665722066726f6d20696e636f72726563742060008201527f6f776e6572000000000000000000000000000000000000000000000000000000602082015250565b7f4552433732313a20746f6b656e20616c7265616479206d696e74656400000000600082015250565b7f4552433732313a207472616e7366657220746f20746865207a65726f2061646460008201527f7265737300000000000000000000000000000000000000000000000000000000602082015250565b7f4552433732313a20617070726f766520746f2063616c6c657200000000000000600082015250565b7f4552433732313a2061646472657373207a65726f206973206e6f74206120766160008201527f6c6964206f776e65720000000000000000000000000000000000000000000000602082015250565b7f4552433732313a206d696e7420746f20746865207a65726f2061646472657373600082015250565b7f4552433732313a20696e76616c696420746f6b656e2049440000000000000000600082015250565b7f4552433732313a20617070726f76616c20746f2063757272656e74206f776e6560008201527f7200000000000000000000000000000000000000000000000000000000000000602082015250565b7f4552433732313a20617070726f76652063616c6c6572206973206e6f7420746f60008201527f6b656e206f776e6572206f7220617070726f76656420666f7220616c6c000000602082015250565b7f455243373231456e756d657261626c653a20676c6f62616c20696e646578206f60008201527f7574206f6620626f756e64730000000000000000000000000000000000000000602082015250565b7f455243373231456e756d657261626c653a20636f6e736563757469766520747260008201527f616e7366657273206e6f7420737570706f727465640000000000000000000000602082015250565b61300881612a45565b811461301357600080fd5b50565b61301f81612a57565b811461302a57600080fd5b50565b61303681612a63565b811461304157600080fd5b50565b61304d81612aaf565b811461305857600080fd5b5056fe697066733a2f2f516d65536a53696e4870506e6d586d73704d6a776958794e367a533445397a63636172694752336a7863615774712fa2646970667358221220a9592ac79227930bfad4a0ea7a0846c8a3afdf788d39726193ad106b8bbb695364736f6c63430008040033",
  "devdoc": {
    "kind": "dev",
    "methods": {
      "approve(address,uint256)": {
        "details": "See {IERC721-approve}."
      },
      "balanceOf(address)": {
        "details": "See {IERC721-balanceOf}."
      },
      "getApproved(uint256)": {
        "details": "See {IERC721-getApproved}."
      },
      "isApprovedForAll(address,address)": {
        "details": "See {IERC721-isApprovedForAll}."
      },
      "name()": {
        "details": "See {IERC721Metadata-name}."
      },
      "ownerOf(uint256)": {
        "details": "See {IERC721-ownerOf}."
      },
      "safeTransferFrom(address,address,uint256)": {
        "details": "See {IERC721-safeTransferFrom}."
      },
      "safeTransferFrom(address,address,uint256,bytes)": {
        "details": "See {IERC721-safeTransferFrom}."
      },
      "setApprovalForAll(address,bool)": {
        "details": "See {IERC721-setApprovalForAll}."
      },
      "supportsInterface(bytes4)": {
        "details": "See {IERC165-supportsInterface}."
      },
      "symbol()": {
        "details": "See {IERC721Metadata-symbol}."
      },
      "tokenByIndex(uint256)": {
        "details": "See {IERC721Enumerable-tokenByIndex}."
      },
      "tokenOfOwnerByIndex(address,uint256)": {
        "details": "See {IERC721Enumerable-tokenOfOwnerByIndex}."
      },
      "tokenURI(uint256)": {
        "details": "See {IERC721Metadata-tokenURI}."
      },
      "totalSupply()": {
        "details": "See {IERC721Enumerable-totalSupply}."
      },
      "transferFrom(address,address,uint256)": {
        "details": "See {IERC721-transferFrom}."
      }
    },
    "version": 1
  },
  "userdoc": {
    "kind": "user",
    "methods": {},
    "version": 1
  },
  "storageLayout": {
    "storage": [
      {
        "astId": 25,
        "contract": "contracts/FakeErc721.sol:FakeErc721",
        "label": "_name",
        "offset": 0,
        "slot": "0",
        "type": "t_string_storage"
      },
      {
        "astId": 27,
        "contract": "contracts/FakeErc721.sol:FakeErc721",
        "label": "_symbol",
        "offset": 0,
        "slot": "1",
        "type": "t_string_storage"
      },
      {
        "astId": 31,
        "contract": "contracts/FakeErc721.sol:FakeErc721",
        "label": "_owners",
        "offset": 0,
        "slot": "2",
        "type": "t_mapping(t_uint256,t_address)"
      },
      {
        "astId": 35,
        "contract": "contracts/FakeErc721.sol:FakeErc721",
        "label": "_balances",
        "offset": 0,
        "slot": "3",
        "type": "t_mapping(t_address,t_uint256)"
      },
      {
        "astId": 39,
        "contract": "contracts/FakeErc721.sol:FakeErc721",
        "label": "_tokenApprovals",
        "offset": 0,
        "slot": "4",
        "type": "t_mapping(t_uint256,t_address)"
      },
      {
        "astId": 45,
        "contract": "contracts/FakeErc721.sol:FakeErc721",
        "label": "_operatorApprovals",
        "offset": 0,
        "slot": "5",
        "type": "t_mapping(t_address,t_mapping(t_address,t_bool))"
      },
      {
        "astId": 1093,
        "contract": "contracts/FakeErc721.sol:FakeErc721",
        "label": "_ownedTokens",
        "offset": 0,
        "slot": "6",
        "type": "t_mapping(t_address,t_mapping(t_uint256,t_uint256))"
      },
      {
        "astId": 1097,
        "contract": "contracts/FakeErc721.sol:FakeErc721",
        "label": "_ownedTokensIndex",
        "offset": 0,
        "slot": "7",
        "type": "t_mapping(t_uint256,t_uint256)"
      },
      {
        "astId": 1100,
        "contract": "contracts/FakeErc721.sol:FakeErc721",
        "label": "_allTokens",
        "offset": 0,
        "slot": "8",
        "type": "t_array(t_uint256)dyn_storage"
      },
      {
        "astId": 1104,
        "contract": "contracts/FakeErc721.sol:FakeErc721",
        "label": "_allTokensIndex",
        "offset": 0,
        "slot": "9",
        "type": "t_mapping(t_uint256,t_uint256)"
      }
    ],
    "types": {
      "t_address": {
        "encoding": "inplace",
        "label": "address",
        "numberOfBytes": "20"
      },
      "t_array(t_uint256)dyn_storage": {
        "base": "t_uint256",
        "encoding": "dynamic_array",
        "label": "uint256[]",
        "numberOfBytes": "32"
      },
      "t_bool": {
        "encoding": "inplace",
        "label": "bool",
        "numberOfBytes": "1"
      },
      "t_mapping(t_address,t_bool)": {
        "encoding": "mapping",
        "key": "t_address",
        "label": "mapping(address => bool)",
        "numberOfBytes": "32",
        "value": "t_bool"
      },
      "t_mapping(t_address,t_mapping(t_address,t_bool))": {
        "encoding": "mapping",
        "key": "t_address",
        "label": "mapping(address => mapping(address => bool))",
        "numberOfBytes": "32",
        "value": "t_mapping(t_address,t_bool)"
      },
      "t_mapping(t_address,t_mapping(t_uint256,t_uint256))": {
        "encoding": "mapping",
        "key": "t_address",
        "label": "mapping(address => mapping(uint256 => uint256))",
        "numberOfBytes": "32",
        "value": "t_mapping(t_uint256,t_uint256)"
      },
      "t_mapping(t_address,t_uint256)": {
        "encoding": "mapping",
        "key": "t_address",
        "label": "mapping(address => uint256)",
        "numberOfBytes": "32",
        "value": "t_uint256"
      },
      "t_mapping(t_uint256,t_address)": {
        "encoding": "mapping",
        "key": "t_uint256",
        "label": "mapping(uint256 => address)",
        "numberOfBytes": "32",
        "value": "t_address"
      },
      "t_mapping(t_uint256,t_uint256)": {
        "encoding": "mapping",
        "key": "t_uint256",
        "label": "mapping(uint256 => uint256)",
        "numberOfBytes": "32",
        "value": "t_uint256"
      },
      "t_string_storage": {
        "encoding": "bytes",
        "label": "string",
        "numberOfBytes": "32"
      },
      "t_uint256": {
        "encoding": "inplace",
        "label": "uint256",
        "numberOfBytes": "32"
      }
    }
  }
}