{
  "address": "0xaa94C879fEe13d21d645614e41B24a22a49B592c",
  "abi": [
    {
      "inputs": [
        {
          "internalType": "address",
          "name": "_starknetCore",
          "type": "address"
        },
        {
          "internalType": "uint256",
          "name": "_endpointGateway",
          "type": "uint256"
        }
      ],
      "stateMutability": "nonpayable",
      "type": "constructor"
    },
    {
      "anonymous": false,
      "inputs": [
        {
          "indexed": true,
          "internalType": "address",
          "name": "l1ERC721",
          "type": "address"
        },
        {
          "indexed": true,
          "internalType": "uint256",
          "name": "l2ERC721",
          "type": "uint256"
        },
        {
          "indexed": true,
          "internalType": "address",
          "name": "l1Account",
          "type": "address"
        },
        {
          "indexed": false,
          "internalType": "uint256",
          "name": "tokenId",
          "type": "uint256"
        }
      ],
      "name": "BridgeFromStarknet",
      "type": "event"
    },
    {
      "anonymous": false,
      "inputs": [
        {
          "indexed": true,
          "internalType": "address",
          "name": "l1ERC721",
          "type": "address"
        },
        {
          "indexed": true,
          "internalType": "uint256",
          "name": "l2ERC721",
          "type": "uint256"
        },
        {
          "indexed": true,
          "internalType": "uint256",
          "name": "l2Account",
          "type": "uint256"
        },
        {
          "indexed": false,
          "internalType": "uint256",
          "name": "tokenId",
          "type": "uint256"
        }
      ],
      "name": "BridgeToStarknet",
      "type": "event"
    },
    {
      "inputs": [
        {
          "internalType": "contract IERC721",
          "name": "_l1TokenContract",
          "type": "address"
        },
        {
          "internalType": "uint256",
          "name": "_l2TokenContract",
          "type": "uint256"
        },
        {
          "internalType": "uint256",
          "name": "_tokenId",
          "type": "uint256"
        }
      ],
      "name": "bridgeFromStarknet",
      "outputs": [],
      "stateMutability": "nonpayable",
      "type": "function"
    },
    {
      "inputs": [
        {
          "internalType": "contract IERC721",
          "name": "_l1TokenContract",
          "type": "address"
        },
        {
          "internalType": "uint256",
          "name": "_l2TokenContract",
          "type": "uint256"
        },
        {
          "internalType": "uint256",
          "name": "_tokenId",
          "type": "uint256"
        }
      ],
      "name": "bridgeFromStarknetAvailable",
      "outputs": [
        {
          "internalType": "bool",
          "name": "",
          "type": "bool"
        }
      ],
      "stateMutability": "view",
      "type": "function"
    },
    {
      "inputs": [
        {
          "internalType": "contract IERC721",
          "name": "_l1TokenContract",
          "type": "address"
        },
        {
          "internalType": "uint256",
          "name": "_l2TokenContract",
          "type": "uint256"
        },
        {
          "internalType": "uint256",
          "name": "_tokenId",
          "type": "uint256"
        },
        {
          "internalType": "uint256",
          "name": "_account",
          "type": "uint256"
        }
      ],
      "name": "bridgeToStarknet",
      "outputs": [],
      "stateMutability": "nonpayable",
      "type": "function"
    },
    {
      "inputs": [
        {
          "internalType": "uint256",
          "name": "gateway",
          "type": "uint256"
        }
      ],
      "name": "changegateway",
      "outputs": [],
      "stateMutability": "nonpayable",
      "type": "function"
    },
    {
      "inputs": [
        {
          "internalType": "address",
          "name": "starknet",
          "type": "address"
        }
      ],
      "name": "changestark",
      "outputs": [],
      "stateMutability": "nonpayable",
      "type": "function"
    },
    {
      "inputs": [
        {
          "internalType": "contract IERC721",
          "name": "_l1TokenContract",
          "type": "address"
        },
        {
          "internalType": "uint256",
          "name": "_l2TokenContract",
          "type": "uint256"
        },
        {
          "internalType": "uint256",
          "name": "_tokenId",
          "type": "uint256"
        }
      ],
      "name": "debug_bridgeFromStarknetAvailable",
      "outputs": [
        {
          "internalType": "bytes32",
          "name": "",
          "type": "bytes32"
        }
      ],
      "stateMutability": "view",
      "type": "function"
    },
    {
      "inputs": [],
      "name": "endpointGateway",
      "outputs": [
        {
          "internalType": "uint256",
          "name": "",
          "type": "uint256"
        }
      ],
      "stateMutability": "view",
      "type": "function"
    },
    {
      "inputs": [],
      "name": "starknetCore",
      "outputs": [
        {
          "internalType": "contract IStarknetCore",
          "name": "",
          "type": "address"
        }
      ],
      "stateMutability": "view",
      "type": "function"
    }
  ],
  "transactionHash": "0x16cfeabfc17972bed7f098bacae15de2b8895e52efc0414c4f01aea524315f25",
  "args": [
    "0x71f6dc893CE413143B99859CF3aEBe6f869a3231",
    "0x0080fa6b6fb9aea3c2b1a4d55d200feba824829a2ab39fc1b36e75b0cefd6538"
  ],
  "numDeployments": 1,
  "solcInputHash": "d04b0342b4b64bd0b952c780a3ad865c",
  "bytecode": "0x60806040523480156200001157600080fd5b50604051620016b1380380620016b183398181016040528101906200003791906200016f565b600073ffffffffffffffffffffffffffffffffffffffff168273ffffffffffffffffffffffffffffffffffffffff161415620000aa576040517f08c379a0000000000000000000000000000000000000000000000000000000008152600401620000a190620001fe565b60405180910390fd5b6000811415620000f1576040517f08c379a0000000000000000000000000000000000000000000000000000000008152600401620000e89062000220565b60405180910390fd5b81600160006101000a81548173ffffffffffffffffffffffffffffffffffffffff021916908373ffffffffffffffffffffffffffffffffffffffff16021790555080600081905550505062000363565b60008151905062000152816200032f565b92915050565b600081519050620001698162000349565b92915050565b600080604083850312156200018357600080fd5b6000620001938582860162000141565b9250506020620001a68582860162000158565b9150509250929050565b6000620001bf60258362000242565b9150620001cc8262000291565b604082019050919050565b6000620001e660288362000242565b9150620001f382620002e0565b604082019050919050565b600060208201905081810360008301526200021981620001b0565b9050919050565b600060208201905081810360008301526200023b81620001d7565b9050919050565b600082825260208201905092915050565b6000620002608262000267565b9050919050565b600073ffffffffffffffffffffffffffffffffffffffff82169050919050565b6000819050919050565b7f476174657761792f696e76616c69642d737461726b6e65742d636f72652d616460008201527f6472657373000000000000000000000000000000000000000000000000000000602082015250565b7f476174657761792f696e76616c69642d737461726b6e65742d6761746577617960008201527f2d61646472657373000000000000000000000000000000000000000000000000602082015250565b6200033a8162000253565b81146200034657600080fd5b50565b620003548162000287565b81146200036057600080fd5b50565b61133e80620003736000396000f3fe608060405234801561001057600080fd5b50600436106100885760003560e01c806369aab3331161005b57806369aab333146101015780636d54e9721461011d578063880f825b146101395780638af6bae91461016957610088565b8063285347dc1461008d57806339e730ab146100a957806341b3a0a1146100c757806366fbae52146100e5575b600080fd5b6100a760048036038101906100a29190610df9565b610199565b005b6100b16101dd565b6040516100be9190611149565b60405180910390f35b6100cf610203565b6040516100dc9190611164565b60405180910390f35b6100ff60048036038101906100fa9190610e22565b610209565b005b61011b60048036038101906101169190610ed4565b61055d565b005b61013760048036038101906101329190610e71565b610567565b005b610153600480360381019061014e9190610e22565b610878565b604051610160919061112e565b60405180910390f35b610183600480360381019061017e9190610e22565b610aa8565b6040516101909190611113565b60405180910390f35b80600160006101000a81548173ffffffffffffffffffffffffffffffffffffffff021916908373ffffffffffffffffffffffffffffffffffffffff16021790555050565b600160009054906101000a900473ffffffffffffffffffffffffffffffffffffffff1681565b60005481565b6000600567ffffffffffffffff81111561024c577f4e487b7100000000000000000000000000000000000000000000000000000000600052604160045260246000fd5b60405190808252806020026020018201604052801561027a5781602001602082028036833780820191505090505b5090506001816000815181106102b9577f4e487b7100000000000000000000000000000000000000000000000000000000600052603260045260246000fd5b6020026020010181815250506102ce33610d85565b81600181518110610308577f4e487b7100000000000000000000000000000000000000000000000000000000600052603260045260246000fd5b60200260200101818152505061031d84610d85565b81600281518110610357577f4e487b7100000000000000000000000000000000000000000000000000000000600052603260045260246000fd5b602002602001018181525050828160038151811061039e577f4e487b7100000000000000000000000000000000000000000000000000000000600052603260045260246000fd5b60200260200101818152505081816004815181106103e5577f4e487b7100000000000000000000000000000000000000000000000000000000600052603260045260246000fd5b602002602001018181525050600160009054906101000a900473ffffffffffffffffffffffffffffffffffffffff1673ffffffffffffffffffffffffffffffffffffffff16632c9dd5c0600054836040518363ffffffff1660e01b815260040161045092919061117f565b600060405180830381600087803b15801561046a57600080fd5b505af115801561047e573d6000803e3d6000fd5b505050508373ffffffffffffffffffffffffffffffffffffffff166323b872dd3033856040518463ffffffff1660e01b81526004016104bf939291906110dc565b600060405180830381600087803b1580156104d957600080fd5b505af11580156104ed573d6000803e3d6000fd5b505050503373ffffffffffffffffffffffffffffffffffffffff16838573ffffffffffffffffffffffffffffffffffffffff167f3c79007e2a0060755a5fcb7ba40951f8249cfe7de5359d6f78f902bd64c6b54d8560405161054f9190611164565b60405180910390a450505050565b8060008190555050565b6000600467ffffffffffffffff8111156105aa577f4e487b7100000000000000000000000000000000000000000000000000000000600052604160045260246000fd5b6040519080825280602002602001820160405280156105d85781602001602082028036833780820191505090505b5090508473ffffffffffffffffffffffffffffffffffffffff166323b872dd3330866040518463ffffffff1660e01b8152600401610618939291906110dc565b600060405180830381600087803b15801561063257600080fd5b505af1158015610646573d6000803e3d6000fd5b505050508181600081518110610685577f4e487b7100000000000000000000000000000000000000000000000000000000600052603260045260246000fd5b60200260200101818152505061069a85610d85565b816001815181106106d4577f4e487b7100000000000000000000000000000000000000000000000000000000600052603260045260246000fd5b602002602001018181525050838160028151811061071b577f4e487b7100000000000000000000000000000000000000000000000000000000600052603260045260246000fd5b6020026020010181815250508281600381518110610762577f4e487b7100000000000000000000000000000000000000000000000000000000600052603260045260246000fd5b602002602001018181525050600160009054906101000a900473ffffffffffffffffffffffffffffffffffffffff1673ffffffffffffffffffffffffffffffffffffffff16633e3aa6c56000547f03d7e9aabaee46b2e84062eb3bca33a0c08e1142b329c095d47ec3d6af1adbc6846040518463ffffffff1660e01b81526004016107ef939291906111af565b600060405180830381600087803b15801561080957600080fd5b505af115801561081d573d6000803e3d6000fd5b5050505081848673ffffffffffffffffffffffffffffffffffffffff167f0aca6293f7494f7c541b84fe2129038e04f72d67d9c5d23c45435370dd56bb09866040516108699190611164565b60405180910390a45050505050565b600080600567ffffffffffffffff8111156108bc577f4e487b7100000000000000000000000000000000000000000000000000000000600052604160045260246000fd5b6040519080825280602002602001820160405280156108ea5781602001602082028036833780820191505090505b509050600181600081518110610929577f4e487b7100000000000000000000000000000000000000000000000000000000600052603260045260246000fd5b60200260200101818152505061093e33610d85565b81600181518110610978577f4e487b7100000000000000000000000000000000000000000000000000000000600052603260045260246000fd5b60200260200101818152505061098d85610d85565b816002815181106109c7577f4e487b7100000000000000000000000000000000000000000000000000000000600052603260045260246000fd5b6020026020010181815250508381600381518110610a0e577f4e487b7100000000000000000000000000000000000000000000000000000000600052603260045260246000fd5b6020026020010181815250508281600481518110610a55577f4e487b7100000000000000000000000000000000000000000000000000000000600052603260045260246000fd5b60200260200101818152505060008054610a6e30610d85565b835184604051602001610a849493929190611092565b60405160208183030381529060405280519060200120905080925050509392505050565b600080600567ffffffffffffffff811115610aec577f4e487b7100000000000000000000000000000000000000000000000000000000600052604160045260246000fd5b604051908082528060200260200182016040528015610b1a5781602001602082028036833780820191505090505b509050600181600081518110610b59577f4e487b7100000000000000000000000000000000000000000000000000000000600052603260045260246000fd5b602002602001018181525050610b6e33610d85565b81600181518110610ba8577f4e487b7100000000000000000000000000000000000000000000000000000000600052603260045260246000fd5b602002602001018181525050610bbd85610d85565b81600281518110610bf7577f4e487b7100000000000000000000000000000000000000000000000000000000600052603260045260246000fd5b6020026020010181815250508381600381518110610c3e577f4e487b7100000000000000000000000000000000000000000000000000000000600052603260045260246000fd5b6020026020010181815250508281600481518110610c85577f4e487b7100000000000000000000000000000000000000000000000000000000600052603260045260246000fd5b60200260200101818152505060008054610c9e30610d85565b835184604051602001610cb49493929190611092565b6040516020818303038152906040528051906020012090506000600160009054906101000a900473ffffffffffffffffffffffffffffffffffffffff1673ffffffffffffffffffffffffffffffffffffffff1663a46efaf3836040518263ffffffff1660e01b8152600401610d29919061112e565b60206040518083038186803b158015610d4157600080fd5b505afa158015610d55573d6000803e3d6000fd5b505050506040513d601f19601f82011682018060405250810190610d799190610efd565b11925050509392505050565b60008173ffffffffffffffffffffffffffffffffffffffff169050919050565b600081359050610db4816112c3565b92915050565b600081359050610dc9816112da565b92915050565b600081359050610dde816112f1565b92915050565b600081519050610df3816112f1565b92915050565b600060208284031215610e0b57600080fd5b6000610e1984828501610da5565b91505092915050565b600080600060608486031215610e3757600080fd5b6000610e4586828701610dba565b9350506020610e5686828701610dcf565b9250506040610e6786828701610dcf565b9150509250925092565b60008060008060808587031215610e8757600080fd5b6000610e9587828801610dba565b9450506020610ea687828801610dcf565b9350506040610eb787828801610dcf565b9250506060610ec887828801610dcf565b91505092959194509250565b600060208284031215610ee657600080fd5b6000610ef484828501610dcf565b91505092915050565b600060208284031215610f0f57600080fd5b6000610f1d84828501610de4565b91505092915050565b6000610f32838361104e565b60208301905092915050565b6000610f4a838361106c565b60208301905092915050565b610f5f81611231565b82525050565b6000610f70826111fd565b610f7a8185611215565b9350610f85836111ed565b8060005b83811015610fb6578151610f9d8882610f26565b9750610fa883611208565b925050600181019050610f89565b5085935050505092915050565b6000610fce826111fd565b610fd88185611226565b9350610fe3836111ed565b8060005b83811015611014578151610ffb8882610f3e565b975061100683611208565b925050600181019050610fe7565b5085935050505092915050565b61102a81611243565b82525050565b6110398161124f565b82525050565b61104881611295565b82525050565b6110578161128b565b82525050565b6110668161128b565b82525050565b6110758161128b565b82525050565b61108c6110878261128b565b6112b9565b82525050565b600061109e828761107b565b6020820191506110ae828661107b565b6020820191506110be828561107b565b6020820191506110ce8284610fc3565b915081905095945050505050565b60006060820190506110f16000830186610f56565b6110fe6020830185610f56565b61110b604083018461105d565b949350505050565b60006020820190506111286000830184611021565b92915050565b60006020820190506111436000830184611030565b92915050565b600060208201905061115e600083018461103f565b92915050565b6000602082019050611179600083018461105d565b92915050565b6000604082019050611194600083018561105d565b81810360208301526111a68184610f65565b90509392505050565b60006060820190506111c4600083018661105d565b6111d1602083018561105d565b81810360408301526111e38184610f65565b9050949350505050565b6000819050602082019050919050565b600081519050919050565b6000602082019050919050565b600082825260208201905092915050565b600081905092915050565b600061123c8261126b565b9050919050565b60008115159050919050565b6000819050919050565b600061126482611231565b9050919050565b600073ffffffffffffffffffffffffffffffffffffffff82169050919050565b6000819050919050565b60006112a0826112a7565b9050919050565b60006112b28261126b565b9050919050565b6000819050919050565b6112cc81611231565b81146112d757600080fd5b50565b6112e381611259565b81146112ee57600080fd5b50565b6112fa8161128b565b811461130557600080fd5b5056fea26469706673582212209668d5b9b285c49966dbcb6cd39a05a484b712f6ecc081c7fef62bdac6692a0264736f6c63430008040033",
  "devdoc": {
    "kind": "dev",
    "methods": {},
    "version": 1
  },
  "userdoc": {
    "kind": "user",
    "methods": {},
    "version": 1
  },
  "storageLayout": {
    "storage": [
      {
        "astId": 133,
        "contract": "contracts/Gateway.sol:Gateway",
        "label": "endpointGateway",
        "offset": 0,
        "slot": "0",
        "type": "t_uint256"
      },
      {
        "astId": 136,
        "contract": "contracts/Gateway.sol:Gateway",
        "label": "starknetCore",
        "offset": 0,
        "slot": "1",
        "type": "t_contract(IStarknetCore)617"
      }
    ],
    "types": {
      "t_contract(IStarknetCore)617": {
        "encoding": "inplace",
        "label": "contract IStarknetCore",
        "numberOfBytes": "20"
      },
      "t_uint256": {
        "encoding": "inplace",
        "label": "uint256",
        "numberOfBytes": "32"
      }
    }
  }
}